{
  "_format": "hh-sol-artifact-1",
  "contractName": "DealPactEscrow",
  "sourceName": "contracts/DealPactEscrow.sol",
  "abi": [
    {
      "inputs": [
        {
          "internalType": "address",
          "name": "_usdcAddress",
          "type": "address"
        }
      ],
      "stateMutability": "nonpayable",
      "type": "constructor"
    },
    {
      "inputs": [],
      "name": "EnforcedPause",
      "type": "error"
    },
    {
      "inputs": [],
      "name": "ExpectedPause",
      "type": "error"
    },
    {
      "inputs": [],
      "name": "ReentrancyGuardReentrantCall",
      "type": "error"
    },
    {
      "anonymous": false,
      "inputs": [
        {
          "indexed": true,
          "internalType": "uint256",
          "name": "dealId",
          "type": "uint256"
        }
      ],
      "name": "DealCancelled",
      "type": "event"
    },
    {
      "anonymous": false,
      "inputs": [
        {
          "indexed": true,
          "internalType": "uint256",
          "name": "dealId",
          "type": "uint256"
        },
        {
          "indexed": false,
          "internalType": "address",
          "name": "seller",
          "type": "address"
        },
        {
          "indexed": false,
          "internalType": "uint256",
          "name": "amount",
          "type": "uint256"
        },
        {
          "indexed": false,
          "internalType": "uint256",
          "name": "fee",
          "type": "uint256"
        }
      ],
      "name": "DealCompleted",
      "type": "event"
    },
    {
      "anonymous": false,
      "inputs": [
        {
          "indexed": true,
          "internalType": "uint256",
          "name": "dealId",
          "type": "uint256"
        },
        {
          "indexed": false,
          "internalType": "string",
          "name": "externalId",
          "type": "string"
        },
        {
          "indexed": false,
          "internalType": "address",
          "name": "seller",
          "type": "address"
        },
        {
          "indexed": false,
          "internalType": "address",
          "name": "buyer",
          "type": "address"
        },
        {
          "indexed": false,
          "internalType": "uint256",
          "name": "amount",
          "type": "uint256"
        }
      ],
      "name": "DealCreated",
      "type": "event"
    },
    {
      "anonymous": false,
      "inputs": [
        {
          "indexed": true,
          "internalType": "uint256",
          "name": "dealId",
          "type": "uint256"
        },
        {
          "indexed": false,
          "internalType": "address",
          "name": "disputedBy",
          "type": "address"
        }
      ],
      "name": "DealDisputed",
      "type": "event"
    },
    {
      "anonymous": false,
      "inputs": [
        {
          "indexed": true,
          "internalType": "uint256",
          "name": "dealId",
          "type": "uint256"
        },
        {
          "indexed": false,
          "internalType": "address",
          "name": "buyer",
          "type": "address"
        },
        {
          "indexed": false,
          "internalType": "uint256",
          "name": "amount",
          "type": "uint256"
        }
      ],
      "name": "DealFunded",
      "type": "event"
    },
    {
      "anonymous": false,
      "inputs": [
        {
          "indexed": true,
          "internalType": "uint256",
          "name": "dealId",
          "type": "uint256"
        },
        {
          "indexed": false,
          "internalType": "address",
          "name": "buyer",
          "type": "address"
        },
        {
          "indexed": false,
          "internalType": "uint256",
          "name": "amount",
          "type": "uint256"
        }
      ],
      "name": "DealRefunded",
      "type": "event"
    },
    {
      "anonymous": false,
      "inputs": [
        {
          "indexed": false,
          "internalType": "uint256",
          "name": "oldFee",
          "type": "uint256"
        },
        {
          "indexed": false,
          "internalType": "uint256",
          "name": "newFee",
          "type": "uint256"
        }
      ],
      "name": "FeePercentChanged",
      "type": "event"
    },
    {
      "anonymous": false,
      "inputs": [
        {
          "indexed": true,
          "internalType": "address",
          "name": "oldOwner",
          "type": "address"
        },
        {
          "indexed": true,
          "internalType": "address",
          "name": "newOwner",
          "type": "address"
        }
      ],
      "name": "OwnershipTransferred",
      "type": "event"
    },
    {
      "anonymous": false,
      "inputs": [
        {
          "indexed": false,
          "internalType": "address",
          "name": "account",
          "type": "address"
        }
      ],
      "name": "Paused",
      "type": "event"
    },
    {
      "anonymous": false,
      "inputs": [
        {
          "indexed": false,
          "internalType": "address",
          "name": "account",
          "type": "address"
        }
      ],
      "name": "Unpaused",
      "type": "event"
    },
    {
      "inputs": [],
      "name": "BASIS_POINTS",
      "outputs": [
        {
          "internalType": "uint256",
          "name": "",
          "type": "uint256"
        }
      ],
      "stateMutability": "view",
      "type": "function"
    },
    {
      "inputs": [
        {
          "internalType": "uint256",
          "name": "_dealId",
          "type": "uint256"
        }
      ],
      "name": "cancel",
      "outputs": [],
      "stateMutability": "nonpayable",
      "type": "function"
    },
    {
      "inputs": [
        {
          "internalType": "address",
          "name": "",
          "type": "address"
        }
      ],
      "name": "completedDeals",
      "outputs": [
        {
          "internalType": "uint256",
          "name": "",
          "type": "uint256"
        }
      ],
      "stateMutability": "view",
      "type": "function"
    },
    {
      "inputs": [
        {
          "internalType": "string",
          "name": "_externalId",
          "type": "string"
        },
        {
          "internalType": "address",
          "name": "_seller",
          "type": "address"
        },
        {
          "internalType": "address",
          "name": "_buyer",
          "type": "address"
        },
        {
          "internalType": "uint256",
          "name": "_amount",
          "type": "uint256"
        }
      ],
      "name": "createDeal",
      "outputs": [
        {
          "internalType": "uint256",
          "name": "",
          "type": "uint256"
        }
      ],
      "stateMutability": "nonpayable",
      "type": "function"
    },
    {
      "inputs": [],
      "name": "dealCounter",
      "outputs": [
        {
          "internalType": "uint256",
          "name": "",
          "type": "uint256"
        }
      ],
      "stateMutability": "view",
      "type": "function"
    },
    {
      "inputs": [
        {
          "internalType": "uint256",
          "name": "",
          "type": "uint256"
        }
      ],
      "name": "deals",
      "outputs": [
        {
          "internalType": "string",
          "name": "externalId",
          "type": "string"
        },
        {
          "internalType": "address",
          "name": "seller",
          "type": "address"
        },
        {
          "internalType": "address",
          "name": "buyer",
          "type": "address"
        },
        {
          "internalType": "uint256",
          "name": "amount",
          "type": "uint256"
        },
        {
          "internalType": "enum DealPactEscrow.DealStatus",
          "name": "status",
          "type": "uint8"
        },
        {
          "internalType": "uint256",
          "name": "createdAt",
          "type": "uint256"
        },
        {
          "internalType": "uint256",
          "name": "completedAt",
          "type": "uint256"
        }
      ],
      "stateMutability": "view",
      "type": "function"
    },
    {
      "inputs": [
        {
          "internalType": "uint256",
          "name": "_dealId",
          "type": "uint256"
        }
      ],
      "name": "deposit",
      "outputs": [],
      "stateMutability": "nonpayable",
      "type": "function"
    },
    {
      "inputs": [
        {
          "internalType": "uint256",
          "name": "_dealId",
          "type": "uint256"
        }
      ],
      "name": "dispute",
      "outputs": [],
      "stateMutability": "nonpayable",
      "type": "function"
    },
    {
      "inputs": [
        {
          "internalType": "string",
          "name": "",
          "type": "string"
        }
      ],
      "name": "externalIdToDealId",
      "outputs": [
        {
          "internalType": "uint256",
          "name": "",
          "type": "uint256"
        }
      ],
      "stateMutability": "view",
      "type": "function"
    },
    {
      "inputs": [],
      "name": "feePercent",
      "outputs": [
        {
          "internalType": "uint256",
          "name": "",
          "type": "uint256"
        }
      ],
      "stateMutability": "view",
      "type": "function"
    },
    {
      "inputs": [
        {
          "internalType": "uint256",
          "name": "_dealId",
          "type": "uint256"
        }
      ],
      "name": "getDeal",
      "outputs": [
        {
          "components": [
            {
              "internalType": "string",
              "name": "externalId",
              "type": "string"
            },
            {
              "internalType": "address",
              "name": "seller",
              "type": "address"
            },
            {
              "internalType": "address",
              "name": "buyer",
              "type": "address"
            },
            {
              "internalType": "uint256",
              "name": "amount",
              "type": "uint256"
            },
            {
              "internalType": "enum DealPactEscrow.DealStatus",
              "name": "status",
              "type": "uint8"
            },
            {
              "internalType": "uint256",
              "name": "createdAt",
              "type": "uint256"
            },
            {
              "internalType": "uint256",
              "name": "completedAt",
              "type": "uint256"
            }
          ],
          "internalType": "struct DealPactEscrow.Deal",
          "name": "",
          "type": "tuple"
        }
      ],
      "stateMutability": "view",
      "type": "function"
    },
    {
      "inputs": [
        {
          "internalType": "string",
          "name": "_externalId",
          "type": "string"
        }
      ],
      "name": "getDealByExternalId",
      "outputs": [
        {
          "components": [
            {
              "internalType": "string",
              "name": "externalId",
              "type": "string"
            },
            {
              "internalType": "address",
              "name": "seller",
              "type": "address"
            },
            {
              "internalType": "address",
              "name": "buyer",
              "type": "address"
            },
            {
              "internalType": "uint256",
              "name": "amount",
              "type": "uint256"
            },
            {
              "internalType": "enum DealPactEscrow.DealStatus",
              "name": "status",
              "type": "uint8"
            },
            {
              "internalType": "uint256",
              "name": "createdAt",
              "type": "uint256"
            },
            {
              "internalType": "uint256",
              "name": "completedAt",
              "type": "uint256"
            }
          ],
          "internalType": "struct DealPactEscrow.Deal",
          "name": "",
          "type": "tuple"
        }
      ],
      "stateMutability": "view",
      "type": "function"
    },
    {
      "inputs": [
        {
          "internalType": "address",
          "name": "_user",
          "type": "address"
        }
      ],
      "name": "getReputation",
      "outputs": [
        {
          "internalType": "uint256",
          "name": "completed",
          "type": "uint256"
        },
        {
          "internalType": "uint256",
          "name": "volume",
          "type": "uint256"
        }
      ],
      "stateMutability": "view",
      "type": "function"
    },
    {
      "inputs": [],
      "name": "maxEscrowAmount",
      "outputs": [
        {
          "internalType": "uint256",
          "name": "",
          "type": "uint256"
        }
      ],
      "stateMutability": "view",
      "type": "function"
    },
    {
      "inputs": [],
      "name": "owner",
      "outputs": [
        {
          "internalType": "address",
          "name": "",
          "type": "address"
        }
      ],
      "stateMutability": "view",
      "type": "function"
    },
    {
      "inputs": [],
      "name": "pause",
      "outputs": [],
      "stateMutability": "nonpayable",
      "type": "function"
    },
    {
      "inputs": [],
      "name": "paused",
      "outputs": [
        {
          "internalType": "bool",
          "name": "",
          "type": "bool"
        }
      ],
      "stateMutability": "view",
      "type": "function"
    },
    {
      "inputs": [
        {
          "internalType": "uint256",
          "name": "_dealId",
          "type": "uint256"
        }
      ],
      "name": "refund",
      "outputs": [],
      "stateMutability": "nonpayable",
      "type": "function"
    },
    {
      "inputs": [
        {
          "internalType": "uint256",
          "name": "_dealId",
          "type": "uint256"
        }
      ],
      "name": "release",
      "outputs": [],
      "stateMutability": "nonpayable",
      "type": "function"
    },
    {
      "inputs": [
        {
          "internalType": "uint256",
          "name": "_dealId",
          "type": "uint256"
        }
      ],
      "name": "resolveRelease",
      "outputs": [],
      "stateMutability": "nonpayable",
      "type": "function"
    },
    {
      "inputs": [
        {
          "internalType": "uint256",
          "name": "_newFee",
          "type": "uint256"
        }
      ],
      "name": "setFeePercent",
      "outputs": [],
      "stateMutability": "nonpayable",
      "type": "function"
    },
    {
      "inputs": [
        {
          "internalType": "uint256",
          "name": "_newMax",
          "type": "uint256"
        }
      ],
      "name": "setMaxEscrowAmount",
      "outputs": [],
      "stateMutability": "nonpayable",
      "type": "function"
    },
    {
      "inputs": [
        {
          "internalType": "address",
          "name": "",
          "type": "address"
        }
      ],
      "name": "totalVolume",
      "outputs": [
        {
          "internalType": "uint256",
          "name": "",
          "type": "uint256"
        }
      ],
      "stateMutability": "view",
      "type": "function"
    },
    {
      "inputs": [
        {
          "internalType": "address",
          "name": "_newOwner",
          "type": "address"
        }
      ],
      "name": "transferOwnership",
      "outputs": [],
      "stateMutability": "nonpayable",
      "type": "function"
    },
    {
      "inputs": [],
      "name": "unpause",
      "outputs": [],
      "stateMutability": "nonpayable",
      "type": "function"
    },
    {
      "inputs": [],
      "name": "usdc",
      "outputs": [
        {
          "internalType": "contract IERC20",
          "name": "",
          "type": "address"
        }
      ],
      "stateMutability": "view",
      "type": "function"
    }
  ],
  "bytecode": "0x60a06040526096600255631dcd650060035534801561001d57600080fd5b50604051620022713803806200227183398101604081905261003e9161006e565b600160008190556001600160a01b03919091166080528054610100600160a81b031916336101000217905561009e565b60006020828403121561008057600080fd5b81516001600160a01b038116811461009757600080fd5b9392505050565b608051612194620000dd600039600081816102420152818161094101528181610c4f01528181610d380152818161105a01526116c901526121946000f3fe608060405234801561001057600080fd5b506004361061018e5760003560e01c80637fd6f15c116100de5780639c89a0e211610097578063e1f1c4a711610071578063e1f1c4a7146103cb578063e62b9e6c146103d4578063f2fde38b146103f4578063fe3b01c91461040757600080fd5b80639c89a0e21461035a578063b6b55f25146103a5578063c6e35b51146103b857600080fd5b80637fd6f15c146102d357806382fd5bac146102dc5780638456cb59146102fc57806386d6282c146103045780638da5cb5b146103175780639825c2d01461032f57600080fd5b806339e865df1161014b5780633f4e7c0b116101255780633f4e7c0b1461028457806340e58ee5146102975780635c975abb146102aa5780637ce3489b146102c057600080fd5b806339e865df146102345780633e413bee1461023d5780633f4ba83a1461027c57600080fd5b806303988f8414610193578063208d01fe146101c2578063217328b6146101e357806322fd5462146101ec578063278ecde11461020c57806337bdc99b14610221575b600080fd5b6101a66101a1366004611b80565b61041a565b6040516101b99796959493929190611c17565b60405180910390f35b6101d56101d0366004611cd1565b6104ef565b6040519081526020016101b9565b6101d560045481565b6101d56101fa366004611d3e565b60076020526000908152604090205481565b61021f61021a366004611b80565b61083a565b005b61021f61022f366004611b80565b610a49565b6101d560035481565b6102647f000000000000000000000000000000000000000000000000000000000000000081565b6040516001600160a01b0390911681526020016101b9565b61021f610e45565b61021f610292366004611b80565b610e7e565b61021f6102a5366004611b80565b611107565b60015460ff1660405190151581526020016101b9565b61021f6102ce366004611b80565b611212565b6101d560025481565b6102ef6102ea366004611b80565b6112c7565b6040516101b99190611d60565b61021f611428565b61021f610312366004611b80565b61145f565b6001546102649061010090046001600160a01b031681565b6101d561033d366004611df2565b805160208183018101805160068252928201919093012091525481565b610390610368366004611d3e565b6001600160a01b03166000908152600760209081526040808320546008909252909120549091565b604080519283526020830191909152016101b9565b61021f6103b3366004611b80565b611571565b61021f6103c6366004611b80565b6117b2565b6101d561271081565b6101d56103e2366004611d3e565b60086020526000908152604090205481565b61021f610402366004611d3e565b6117e6565b6102ef610415366004611ea3565b6118b7565b60056020526000908152604090208054819061043590611ee5565b80601f016020809104026020016040519081016040528092919081815260200182805461046190611ee5565b80156104ae5780601f10610483576101008083540402835291602001916104ae565b820191906000526020600020905b81548152906001019060200180831161049157829003601f168201915b5050506001840154600285015460038601546004870154600588015460069098015496976001600160a01b039485169793909416955090935060ff16919087565b60006104f9611a82565b6001600160a01b0384166105455760405162461bcd60e51b815260206004820152600e60248201526d24b73b30b634b21039b2b63632b960911b60448201526064015b60405180910390fd5b6001600160a01b03831661058b5760405162461bcd60e51b815260206004820152600d60248201526c24b73b30b634b210313abcb2b960991b604482015260640161053c565b826001600160a01b0316846001600160a01b0316036105e55760405162461bcd60e51b815260206004820152601660248201527529b2b63632b91031b0b73737ba10313290313abcb2b960511b604482015260640161053c565b6000821180156105f757506003548211155b6106345760405162461bcd60e51b815260206004820152600e60248201526d125b9d985b1a5908185b5bdd5b9d60921b604482015260640161053c565b60068686604051610646929190611f1f565b9081526020016040518091039020546000146106995760405162461bcd60e51b815260206004820152601260248201527145787465726e616c2049442065786973747360701b604482015260640161053c565b600480549060006106a983611f45565b9091555050600454604080516101006020601f8a01819004028201810190925260e0810188815290918291908a908a908190850183828082843760009201829052509385525050506001600160a01b038089166020840152871660408301526060820186905260809091019081524260208083019190915260006040928301819052848152600590915220815181906107429082611fad565b506020820151600180830180546001600160a01b039384166001600160a01b0319918216179091556040850151600285018054919094169116179091556060830151600383015560808301516004830180549192909160ff1916908360058111156107af576107af611bdf565b021790555060a0820151816005015560c0820151816006015590505080600688886040516107de929190611f1f565b908152602001604051809103902081905550807f63ac9ea005f59508b5eaf115ab56b6ec140c414d08aff687f257d059eb5eb3a4888888888860405161082895949392919061206d565b60405180910390a29695505050505050565b60015461010090046001600160a01b031633146108695760405162461bcd60e51b815260040161053c906120b9565b610871611aa6565b60008181526005602052604090206001600482015460ff16600581111561089a5761089a611bdf565b14806108bd575060048082015460ff1660058111156108bb576108bb611bdf565b145b6108f95760405162461bcd60e51b815260206004820152600d60248201526c10d85b9b9bdd081c99599d5b99609a1b604482015260640161053c565b6004818101805460ff1916600390811790915542600684015560028301549083015460405163a9059cbb60e01b81526001600160a01b039283169381019390935260248301527f0000000000000000000000000000000000000000000000000000000000000000169063a9059cbb906044016020604051808303816000875af115801561098a573d6000803e3d6000fd5b505050506040513d601f19601f820116820180604052508101906109ae91906120dd565b6109ea5760405162461bcd60e51b815260206004820152600d60248201526c1499599d5b990819985a5b1959609a1b604482015260640161053c565b60028101546003820154604080516001600160a01b039093168352602083019190915283917f421ac64b0a0e649da74bb1528ebb1736572ec660f9aff6b354fd500e22c6341891015b60405180910390a250610a466001600055565b50565b610a51611aa6565b600081815260056020526040902060028101546001600160a01b03163314610ab45760405162461bcd60e51b81526020600482015260166024820152754f6e6c792062757965722063616e2072656c6561736560501b604482015260640161053c565b6001600482015460ff166005811115610acf57610acf611bdf565b14610b0e5760405162461bcd60e51b815260206004820152600f60248201526e1119585b081b9bdd08199d5b991959608a1b604482015260640161053c565b60048101805460ff1916600290811790915542600683015554600382015460009161271091610b3d91906120ff565b610b479190612116565b90506000818360030154610b5b9190612138565b60018401546001600160a01b03166000908152600760205260408120805492935090610b8683611f45565b909155505060028301546001600160a01b03166000908152600760205260408120805491610bb383611f45565b9091555050600383015460018401546001600160a01b031660009081526008602052604081208054909190610be990849061214b565b9091555050600383015460028401546001600160a01b031660009081526008602052604081208054909190610c1f90849061214b565b9091555050600183015460405163a9059cbb60e01b81526001600160a01b039182166004820152602481018390527f00000000000000000000000000000000000000000000000000000000000000009091169063a9059cbb906044016020604051808303816000875af1158015610c9a573d6000803e3d6000fd5b505050506040513d601f19601f82011682018060405250810190610cbe91906120dd565b610d035760405162461bcd60e51b815260206004820152601660248201527514d95b1b195c881d1c985b9cd9995c8819985a5b195960521b604482015260640161053c565b8115610de75760015460405163a9059cbb60e01b81526101009091046001600160a01b039081166004830152602482018490527f0000000000000000000000000000000000000000000000000000000000000000169063a9059cbb906044016020604051808303816000875af1158015610d81573d6000803e3d6000fd5b505050506040513d601f19601f82011682018060405250810190610da591906120dd565b610de75760405162461bcd60e51b8152602060048201526013602482015272119959481d1c985b9cd9995c8819985a5b1959606a1b604482015260640161053c565b6001830154604080516001600160a01b03909216825260208201839052810183905284907fc4e41bfdda3362f3dc4ec3cfc564e55464a62dd6c87e3f68cefe2f5ceeefbac59060600160405180910390a2505050610a466001600055565b60015461010090046001600160a01b03163314610e745760405162461bcd60e51b815260040161053c906120b9565b610e7c611ad0565b565b60015461010090046001600160a01b03163314610ead5760405162461bcd60e51b815260040161053c906120b9565b610eb5611aa6565b600081815260056020526040902060048082015460ff166005811115610edd57610edd611bdf565b14610f195760405162461bcd60e51b815260206004820152600c60248201526b139bdd08191a5cdc1d5d195960a21b604482015260640161053c565b60048101805460ff1916600290811790915542600683015554600382015460009161271091610f4891906120ff565b610f529190612116565b90506000818360030154610f669190612138565b60018401546001600160a01b03166000908152600760205260408120805492935090610f9183611f45565b909155505060028301546001600160a01b03166000908152600760205260408120805491610fbe83611f45565b9091555050600383015460018401546001600160a01b031660009081526008602052604081208054909190610ff490849061214b565b9091555050600383015460028401546001600160a01b03166000908152600860205260408120805490919061102a90849061214b565b9091555050600183015460405163a9059cbb60e01b81526001600160a01b039182166004820152602481018390527f00000000000000000000000000000000000000000000000000000000000000009091169063a9059cbb906044016020604051808303816000875af11580156110a5573d6000803e3d6000fd5b505050506040513d601f19601f820116820180604052508101906110c991906120dd565b610d035760405162461bcd60e51b815260206004820152600f60248201526e151c985b9cd9995c8819985a5b1959608a1b604482015260640161053c565b600081815260056020526040902060018101546001600160a01b031633148061113f575060015461010090046001600160a01b031633145b61117c5760405162461bcd60e51b815260206004820152600e60248201526d139bdd08185d5d1a1bdc9a5e995960921b604482015260640161053c565b6000600482015460ff16600581111561119757611197611bdf565b146111d45760405162461bcd60e51b815260206004820152600d60248201526c10d85b9b9bdd0818d85b98d95b609a1b604482015260640161053c565b60048101805460ff1916600517905560405182907f31b0c01e8429f81903c3f8adc204767b8efa7cfca91a00f3b4bb40ce63c8a20690600090a25050565b60015461010090046001600160a01b031633146112415760405162461bcd60e51b815260040161053c906120b9565b6101f48111156112825760405162461bcd60e51b815260206004820152600c60248201526b08ccaca40e8dede40d0d2ced60a31b604482015260640161053c565b600280549082905560408051828152602081018490527f44cb215a0ee4011e0802aea4220545b8f823c5041bb303a4ae1219f99f91e65b910160405180910390a15050565b6113076040805160e08101825260608082526000602083018190529282018390528101829052906080820190815260200160008152602001600081525090565b60008281526005602052604090819020815160e0810190925280548290829061132f90611ee5565b80601f016020809104026020016040519081016040528092919081815260200182805461135b90611ee5565b80156113a85780601f1061137d576101008083540402835291602001916113a8565b820191906000526020600020905b81548152906001019060200180831161138b57829003601f168201915b505050918352505060018201546001600160a01b039081166020830152600283015416604082015260038201546060820152600482015460809091019060ff1660058111156113f9576113f9611bdf565b600581111561140a5761140a611bdf565b81526005820154602082015260069091015460409091015292915050565b60015461010090046001600160a01b031633146114575760405162461bcd60e51b815260040161053c906120b9565b610e7c611b22565b600081815260056020526040902060028101546001600160a01b0316331480611494575060018101546001600160a01b031633145b6114ce5760405162461bcd60e51b815260206004820152600b60248201526a4e6f74206120706172747960a81b604482015260640161053c565b6001600482015460ff1660058111156114e9576114e9611bdf565b146115285760405162461bcd60e51b815260206004820152600f60248201526e1119585b081b9bdd08199d5b991959608a1b604482015260640161053c565b6004818101805460ff1916909117905560405133815282907fa68d56a81a9be734bdfa17f0fb210239cdc6cac8f3bcb9d5c09841fcab4b1d8a9060200160405180910390a25050565b611579611aa6565b611581611a82565b600081815260056020526040902060028101546001600160a01b03166115da5760405162461bcd60e51b815260206004820152600e60248201526d1119585b081b9bdd08199bdd5b9960921b604482015260640161053c565b60028101546001600160a01b0316331461162f5760405162461bcd60e51b815260206004820152601660248201527513db9b1e48189d5e595c8818d85b8819195c1bdcda5d60521b604482015260640161053c565b6000600482015460ff16600581111561164a5761164a611bdf565b1461168a5760405162461bcd60e51b815260206004820152601060248201526f4465616c206e6f742070656e64696e6760801b604482015260640161053c565b6004818101805460ff1916600117905560038201546040516323b872dd60e01b8152339281019290925230602483015260448201526001600160a01b037f000000000000000000000000000000000000000000000000000000000000000016906323b872dd906064016020604051808303816000875af1158015611712573d6000803e3d6000fd5b505050506040513d601f19601f8201168201806040525081019061173691906120dd565b6117745760405162461bcd60e51b815260206004820152600f60248201526e151c985b9cd9995c8819985a5b1959608a1b604482015260640161053c565b600381015460408051338152602081019290925283917fcaee61ccea433411b2a8848cb622487f4368e8c231d05982e0f89e3eb7a1f8c89101610a33565b60015461010090046001600160a01b031633146117e15760405162461bcd60e51b815260040161053c906120b9565b600355565b60015461010090046001600160a01b031633146118155760405162461bcd60e51b815260040161053c906120b9565b6001600160a01b03811661185d5760405162461bcd60e51b815260206004820152600f60248201526e496e76616c6964206164647265737360881b604482015260640161053c565b600180546001600160a01b03838116610100818102610100600160a81b031985161790945560405193909204169182907f8be0079c531659141344cd1fd0a4f28419497f9722a3daafe3b4186f6b6457e090600090a35050565b6118f76040805160e08101825260608082526000602083018190529282018390528101829052906080820190815260200160008152602001600081525090565b60006006848460405161190b929190611f1f565b90815260200160405180910390205490508060000361195d5760405162461bcd60e51b815260206004820152600e60248201526d1119585b081b9bdd08199bdd5b9960921b604482015260640161053c565b60008181526005602052604090819020815160e0810190925280548290829061198590611ee5565b80601f01602080910402602001604051908101604052809291908181526020018280546119b190611ee5565b80156119fe5780601f106119d3576101008083540402835291602001916119fe565b820191906000526020600020905b8154815290600101906020018083116119e157829003601f168201915b505050918352505060018201546001600160a01b039081166020830152600283015416604082015260038201546060820152600482015460809091019060ff166005811115611a4f57611a4f611bdf565b6005811115611a6057611a60611bdf565b8152602001600582015481526020016006820154815250509150505b92915050565b60015460ff1615610e7c5760405163d93c066560e01b815260040160405180910390fd5b600260005403611ac957604051633ee5aeb560e01b815260040160405180910390fd5b6002600055565b611ad8611b5d565b6001805460ff191690557f5db9ee0a495bf2e6ff9c91a7834c1ba4fdd244a5e8aa4e537bd38aeae4b073aa335b6040516001600160a01b03909116815260200160405180910390a1565b611b2a611a82565b6001805460ff1916811790557f62e78cea01bee320cd4e420270b5ea74000d11b0c9f74754ebdbfc544b05a25833611b05565b60015460ff16610e7c57604051638dfc202b60e01b815260040160405180910390fd5b600060208284031215611b9257600080fd5b5035919050565b6000815180845260005b81811015611bbf57602081850181015186830182015201611ba3565b506000602082860101526020601f19601f83011685010191505092915050565b634e487b7160e01b600052602160045260246000fd5b60068110611c1357634e487b7160e01b600052602160045260246000fd5b9052565b60e081526000611c2a60e083018a611b99565b6001600160a01b03898116602085015288166040840152606083018790529050611c576080830186611bf5565b60a082019390935260c0015295945050505050565b60008083601f840112611c7e57600080fd5b50813567ffffffffffffffff811115611c9657600080fd5b602083019150836020828501011115611cae57600080fd5b9250929050565b80356001600160a01b0381168114611ccc57600080fd5b919050565b600080600080600060808688031215611ce957600080fd5b853567ffffffffffffffff811115611d0057600080fd5b611d0c88828901611c6c565b9096509450611d1f905060208701611cb5565b9250611d2d60408701611cb5565b949793965091946060013592915050565b600060208284031215611d5057600080fd5b611d5982611cb5565b9392505050565b602081526000825160e06020840152611d7d610100840182611b99565b9050602084015160018060a01b0380821660408601528060408701511660608601525050606084015160808401526080840151611dbd60a0850182611bf5565b5060a084015160c084015260c084015160e08401528091505092915050565b634e487b7160e01b600052604160045260246000fd5b600060208284031215611e0457600080fd5b813567ffffffffffffffff80821115611e1c57600080fd5b818401915084601f830112611e3057600080fd5b813581811115611e4257611e42611ddc565b604051601f8201601f19908116603f01168101908382118183101715611e6a57611e6a611ddc565b81604052828152876020848701011115611e8357600080fd5b826020860160208301376000928101602001929092525095945050505050565b60008060208385031215611eb657600080fd5b823567ffffffffffffffff811115611ecd57600080fd5b611ed985828601611c6c565b90969095509350505050565b600181811c90821680611ef957607f821691505b602082108103611f1957634e487b7160e01b600052602260045260246000fd5b50919050565b8183823760009101908152919050565b634e487b7160e01b600052601160045260246000fd5b600060018201611f5757611f57611f2f565b5060010190565b601f821115611fa857600081815260208120601f850160051c81016020861015611f855750805b601f850160051c820191505b81811015611fa457828155600101611f91565b5050505b505050565b815167ffffffffffffffff811115611fc757611fc7611ddc565b611fdb81611fd58454611ee5565b84611f5e565b602080601f8311600181146120105760008415611ff85750858301515b600019600386901b1c1916600185901b178555611fa4565b600085815260208120601f198616915b8281101561203f57888601518255948401946001909101908401612020565b508582101561205d5787850151600019600388901b60f8161c191681555b5050505050600190811b01905550565b60808152846080820152848660a0830137600060a08683018101919091526001600160a01b0394851660208301529290931660408401526060830152601f909201601f19160101919050565b6020808252600a908201526927b7363c9037bbb732b960b11b604082015260600190565b6000602082840312156120ef57600080fd5b81518015158114611d5957600080fd5b8082028115828204841417611a7c57611a7c611f2f565b60008261213357634e487b7160e01b600052601260045260246000fd5b500490565b81810381811115611a7c57611a7c611f2f565b80820180821115611a7c57611a7c611f2f56fea26469706673582212201a90085c5c5690337a0150d9cc523304076ab6498ec08df199e027d24b1aa74664736f6c63430008140033",
  "linkReferences": {},
  "deployedLinkReferences": {}
}