{
  "_format": "hh-sol-artifact-1",
  "contractName": "TrustLockEscrow",
  "sourceName": "contracts/TrustLockEscrow.sol",
  "abi": [
    {
      "inputs": [
        {
          "internalType": "address",
          "name": "_usdcAddress",
          "type": "address"
        }
      ],
      "stateMutability": "nonpayable",
      "type": "constructor"
    },
    {
      "inputs": [],
      "name": "ReentrancyGuardReentrantCall",
      "type": "error"
    },
    {
      "anonymous": false,
      "inputs": [
        {
          "indexed": true,
          "internalType": "uint256",
          "name": "dealId",
          "type": "uint256"
        }
      ],
      "name": "DealCancelled",
      "type": "event"
    },
    {
      "anonymous": false,
      "inputs": [
        {
          "indexed": true,
          "internalType": "uint256",
          "name": "dealId",
          "type": "uint256"
        },
        {
          "indexed": false,
          "internalType": "address",
          "name": "seller",
          "type": "address"
        },
        {
          "indexed": false,
          "internalType": "uint256",
          "name": "amount",
          "type": "uint256"
        },
        {
          "indexed": false,
          "internalType": "uint256",
          "name": "fee",
          "type": "uint256"
        }
      ],
      "name": "DealCompleted",
      "type": "event"
    },
    {
      "anonymous": false,
      "inputs": [
        {
          "indexed": true,
          "internalType": "uint256",
          "name": "dealId",
          "type": "uint256"
        },
        {
          "indexed": false,
          "internalType": "string",
          "name": "externalId",
          "type": "string"
        },
        {
          "indexed": false,
          "internalType": "address",
          "name": "seller",
          "type": "address"
        },
        {
          "indexed": false,
          "internalType": "address",
          "name": "buyer",
          "type": "address"
        },
        {
          "indexed": false,
          "internalType": "uint256",
          "name": "amount",
          "type": "uint256"
        }
      ],
      "name": "DealCreated",
      "type": "event"
    },
    {
      "anonymous": false,
      "inputs": [
        {
          "indexed": true,
          "internalType": "uint256",
          "name": "dealId",
          "type": "uint256"
        },
        {
          "indexed": false,
          "internalType": "address",
          "name": "disputedBy",
          "type": "address"
        }
      ],
      "name": "DealDisputed",
      "type": "event"
    },
    {
      "anonymous": false,
      "inputs": [
        {
          "indexed": true,
          "internalType": "uint256",
          "name": "dealId",
          "type": "uint256"
        },
        {
          "indexed": false,
          "internalType": "address",
          "name": "buyer",
          "type": "address"
        },
        {
          "indexed": false,
          "internalType": "uint256",
          "name": "amount",
          "type": "uint256"
        }
      ],
      "name": "DealFunded",
      "type": "event"
    },
    {
      "anonymous": false,
      "inputs": [
        {
          "indexed": true,
          "internalType": "uint256",
          "name": "dealId",
          "type": "uint256"
        },
        {
          "indexed": false,
          "internalType": "address",
          "name": "buyer",
          "type": "address"
        },
        {
          "indexed": false,
          "internalType": "uint256",
          "name": "amount",
          "type": "uint256"
        }
      ],
      "name": "DealRefunded",
      "type": "event"
    },
    {
      "inputs": [],
      "name": "BASIS_POINTS",
      "outputs": [
        {
          "internalType": "uint256",
          "name": "",
          "type": "uint256"
        }
      ],
      "stateMutability": "view",
      "type": "function"
    },
    {
      "inputs": [
        {
          "internalType": "uint256",
          "name": "_dealId",
          "type": "uint256"
        }
      ],
      "name": "cancel",
      "outputs": [],
      "stateMutability": "nonpayable",
      "type": "function"
    },
    {
      "inputs": [
        {
          "internalType": "address",
          "name": "",
          "type": "address"
        }
      ],
      "name": "completedDeals",
      "outputs": [
        {
          "internalType": "uint256",
          "name": "",
          "type": "uint256"
        }
      ],
      "stateMutability": "view",
      "type": "function"
    },
    {
      "inputs": [
        {
          "internalType": "string",
          "name": "_externalId",
          "type": "string"
        },
        {
          "internalType": "address",
          "name": "_seller",
          "type": "address"
        },
        {
          "internalType": "address",
          "name": "_buyer",
          "type": "address"
        },
        {
          "internalType": "uint256",
          "name": "_amount",
          "type": "uint256"
        }
      ],
      "name": "createDeal",
      "outputs": [
        {
          "internalType": "uint256",
          "name": "",
          "type": "uint256"
        }
      ],
      "stateMutability": "nonpayable",
      "type": "function"
    },
    {
      "inputs": [],
      "name": "dealCounter",
      "outputs": [
        {
          "internalType": "uint256",
          "name": "",
          "type": "uint256"
        }
      ],
      "stateMutability": "view",
      "type": "function"
    },
    {
      "inputs": [
        {
          "internalType": "uint256",
          "name": "",
          "type": "uint256"
        }
      ],
      "name": "deals",
      "outputs": [
        {
          "internalType": "string",
          "name": "externalId",
          "type": "string"
        },
        {
          "internalType": "address",
          "name": "seller",
          "type": "address"
        },
        {
          "internalType": "address",
          "name": "buyer",
          "type": "address"
        },
        {
          "internalType": "uint256",
          "name": "amount",
          "type": "uint256"
        },
        {
          "internalType": "enum TrustLockEscrow.DealStatus",
          "name": "status",
          "type": "uint8"
        },
        {
          "internalType": "uint256",
          "name": "createdAt",
          "type": "uint256"
        },
        {
          "internalType": "uint256",
          "name": "completedAt",
          "type": "uint256"
        }
      ],
      "stateMutability": "view",
      "type": "function"
    },
    {
      "inputs": [
        {
          "internalType": "uint256",
          "name": "_dealId",
          "type": "uint256"
        }
      ],
      "name": "deposit",
      "outputs": [],
      "stateMutability": "nonpayable",
      "type": "function"
    },
    {
      "inputs": [
        {
          "internalType": "uint256",
          "name": "_dealId",
          "type": "uint256"
        }
      ],
      "name": "dispute",
      "outputs": [],
      "stateMutability": "nonpayable",
      "type": "function"
    },
    {
      "inputs": [
        {
          "internalType": "string",
          "name": "",
          "type": "string"
        }
      ],
      "name": "externalIdToDealId",
      "outputs": [
        {
          "internalType": "uint256",
          "name": "",
          "type": "uint256"
        }
      ],
      "stateMutability": "view",
      "type": "function"
    },
    {
      "inputs": [],
      "name": "feePercent",
      "outputs": [
        {
          "internalType": "uint256",
          "name": "",
          "type": "uint256"
        }
      ],
      "stateMutability": "view",
      "type": "function"
    },
    {
      "inputs": [
        {
          "internalType": "uint256",
          "name": "_dealId",
          "type": "uint256"
        }
      ],
      "name": "getDeal",
      "outputs": [
        {
          "components": [
            {
              "internalType": "string",
              "name": "externalId",
              "type": "string"
            },
            {
              "internalType": "address",
              "name": "seller",
              "type": "address"
            },
            {
              "internalType": "address",
              "name": "buyer",
              "type": "address"
            },
            {
              "internalType": "uint256",
              "name": "amount",
              "type": "uint256"
            },
            {
              "internalType": "enum TrustLockEscrow.DealStatus",
              "name": "status",
              "type": "uint8"
            },
            {
              "internalType": "uint256",
              "name": "createdAt",
              "type": "uint256"
            },
            {
              "internalType": "uint256",
              "name": "completedAt",
              "type": "uint256"
            }
          ],
          "internalType": "struct TrustLockEscrow.Deal",
          "name": "",
          "type": "tuple"
        }
      ],
      "stateMutability": "view",
      "type": "function"
    },
    {
      "inputs": [
        {
          "internalType": "string",
          "name": "_externalId",
          "type": "string"
        }
      ],
      "name": "getDealByExternalId",
      "outputs": [
        {
          "components": [
            {
              "internalType": "string",
              "name": "externalId",
              "type": "string"
            },
            {
              "internalType": "address",
              "name": "seller",
              "type": "address"
            },
            {
              "internalType": "address",
              "name": "buyer",
              "type": "address"
            },
            {
              "internalType": "uint256",
              "name": "amount",
              "type": "uint256"
            },
            {
              "internalType": "enum TrustLockEscrow.DealStatus",
              "name": "status",
              "type": "uint8"
            },
            {
              "internalType": "uint256",
              "name": "createdAt",
              "type": "uint256"
            },
            {
              "internalType": "uint256",
              "name": "completedAt",
              "type": "uint256"
            }
          ],
          "internalType": "struct TrustLockEscrow.Deal",
          "name": "",
          "type": "tuple"
        }
      ],
      "stateMutability": "view",
      "type": "function"
    },
    {
      "inputs": [
        {
          "internalType": "address",
          "name": "_user",
          "type": "address"
        }
      ],
      "name": "getReputation",
      "outputs": [
        {
          "internalType": "uint256",
          "name": "completed",
          "type": "uint256"
        },
        {
          "internalType": "uint256",
          "name": "volume",
          "type": "uint256"
        }
      ],
      "stateMutability": "view",
      "type": "function"
    },
    {
      "inputs": [],
      "name": "maxEscrowAmount",
      "outputs": [
        {
          "internalType": "uint256",
          "name": "",
          "type": "uint256"
        }
      ],
      "stateMutability": "view",
      "type": "function"
    },
    {
      "inputs": [],
      "name": "owner",
      "outputs": [
        {
          "internalType": "address",
          "name": "",
          "type": "address"
        }
      ],
      "stateMutability": "view",
      "type": "function"
    },
    {
      "inputs": [
        {
          "internalType": "uint256",
          "name": "_dealId",
          "type": "uint256"
        }
      ],
      "name": "refund",
      "outputs": [],
      "stateMutability": "nonpayable",
      "type": "function"
    },
    {
      "inputs": [
        {
          "internalType": "uint256",
          "name": "_dealId",
          "type": "uint256"
        }
      ],
      "name": "release",
      "outputs": [],
      "stateMutability": "nonpayable",
      "type": "function"
    },
    {
      "inputs": [
        {
          "internalType": "uint256",
          "name": "_dealId",
          "type": "uint256"
        }
      ],
      "name": "resolveRelease",
      "outputs": [],
      "stateMutability": "nonpayable",
      "type": "function"
    },
    {
      "inputs": [
        {
          "internalType": "uint256",
          "name": "_newFee",
          "type": "uint256"
        }
      ],
      "name": "setFeePercent",
      "outputs": [],
      "stateMutability": "nonpayable",
      "type": "function"
    },
    {
      "inputs": [
        {
          "internalType": "uint256",
          "name": "_newMax",
          "type": "uint256"
        }
      ],
      "name": "setMaxEscrowAmount",
      "outputs": [],
      "stateMutability": "nonpayable",
      "type": "function"
    },
    {
      "inputs": [
        {
          "internalType": "address",
          "name": "",
          "type": "address"
        }
      ],
      "name": "totalVolume",
      "outputs": [
        {
          "internalType": "uint256",
          "name": "",
          "type": "uint256"
        }
      ],
      "stateMutability": "view",
      "type": "function"
    },
    {
      "inputs": [
        {
          "internalType": "address",
          "name": "_newOwner",
          "type": "address"
        }
      ],
      "name": "transferOwnership",
      "outputs": [],
      "stateMutability": "nonpayable",
      "type": "function"
    },
    {
      "inputs": [],
      "name": "usdc",
      "outputs": [
        {
          "internalType": "contract IERC20",
          "name": "",
          "type": "address"
        }
      ],
      "stateMutability": "view",
      "type": "function"
    }
  ],
  "bytecode": "0x60a06040526096600255631dcd650060035534801561001d57600080fd5b5060405161200e38038061200e83398101604081905261003c91610066565b600160008190556001600160a01b0390911660805280546001600160a01b03191633179055610096565b60006020828403121561007857600080fd5b81516001600160a01b038116811461008f57600080fd5b9392505050565b608051611f3a6100d460003960008181610201015281816108c801528181610bd601528181610cb901528181610f9f01526115850152611f3a6000f3fe608060405234801561001057600080fd5b506004361061014d5760003560e01c80637fd6f15c116100c3578063b6b55f251161007c578063b6b55f2514610339578063c6e35b511461034c578063e1f1c4a71461035f578063e62b9e6c14610368578063f2fde38b14610388578063fe3b01c91461039b57600080fd5b80637fd6f15c1461027457806382fd5bac1461027d57806386d6282c1461029d5780638da5cb5b146102b05780639825c2d0146102c35780639c89a0e2146102ee57600080fd5b806337bdc99b1161011557806337bdc99b146101e057806339e865df146101f35780633e413bee146101fc5780633f4e7c0b1461023b57806340e58ee51461024e5780637ce3489b1461026157600080fd5b806303988f8414610152578063208d01fe14610181578063217328b6146101a257806322fd5462146101ab578063278ecde1146101cb575b600080fd5b610165610160366004611926565b6103ae565b60405161017897969594939291906119bd565b60405180910390f35b61019461018f366004611a77565b610483565b604051908152602001610178565b61019460045481565b6101946101b9366004611ae4565b60076020526000908152604090205481565b6101de6101d9366004611926565b6107c6565b005b6101de6101ee366004611926565b6109d0565b61019460035481565b6102237f000000000000000000000000000000000000000000000000000000000000000081565b6040516001600160a01b039091168152602001610178565b6101de610249366004611926565b610dc8565b6101de61025c366004611926565b61104c565b6101de61026f366004611926565b611152565b61019460025481565b61029061028b366004611926565b6111c2565b6040516101789190611b06565b6101de6102ab366004611926565b611323565b600154610223906001600160a01b031681565b6101946102d1366004611b98565b805160208183018101805160068252928201919093012091525481565b6103246102fc366004611ae4565b6001600160a01b03166000908152600760209081526040808320546008909252909120549091565b60408051928352602083019190915201610178565b6101de610347366004611926565b611435565b6101de61035a366004611926565b61166e565b61019461271081565b610194610376366004611ae4565b60086020526000908152604090205481565b6101de610396366004611ae4565b61169d565b6102906103a9366004611c49565b611731565b6005602052600090815260409020805481906103c990611c8b565b80601f01602080910402602001604051908101604052809291908181526020018280546103f590611c8b565b80156104425780601f1061041757610100808354040283529160200191610442565b820191906000526020600020905b81548152906001019060200180831161042557829003601f168201915b5050506001840154600285015460038601546004870154600588015460069098015496976001600160a01b039485169793909416955090935060ff16919087565b60006001600160a01b0384166104d15760405162461bcd60e51b815260206004820152600e60248201526d24b73b30b634b21039b2b63632b960911b60448201526064015b60405180910390fd5b6001600160a01b0383166105175760405162461bcd60e51b815260206004820152600d60248201526c24b73b30b634b210313abcb2b960991b60448201526064016104c8565b826001600160a01b0316846001600160a01b0316036105715760405162461bcd60e51b815260206004820152601660248201527529b2b63632b91031b0b73737ba10313290313abcb2b960511b60448201526064016104c8565b60008211801561058357506003548211155b6105c05760405162461bcd60e51b815260206004820152600e60248201526d125b9d985b1a5908185b5bdd5b9d60921b60448201526064016104c8565b600686866040516105d2929190611cc5565b9081526020016040518091039020546000146106255760405162461bcd60e51b815260206004820152601260248201527145787465726e616c2049442065786973747360701b60448201526064016104c8565b6004805490600061063583611ceb565b9091555050600454604080516101006020601f8a01819004028201810190925260e0810188815290918291908a908a908190850183828082843760009201829052509385525050506001600160a01b038089166020840152871660408301526060820186905260809091019081524260208083019190915260006040928301819052848152600590915220815181906106ce9082611d53565b506020820151600180830180546001600160a01b039384166001600160a01b0319918216179091556040850151600285018054919094169116179091556060830151600383015560808301516004830180549192909160ff19169083600581111561073b5761073b611985565b021790555060a0820151816005015560c08201518160060155905050806006888860405161076a929190611cc5565b908152602001604051809103902081905550807f63ac9ea005f59508b5eaf115ab56b6ec140c414d08aff687f257d059eb5eb3a488888888886040516107b4959493929190611e13565b60405180910390a29695505050505050565b6001546001600160a01b031633146107f05760405162461bcd60e51b81526004016104c890611e5f565b6107f86118fc565b60008181526005602052604090206001600482015460ff16600581111561082157610821611985565b1480610844575060048082015460ff16600581111561084257610842611985565b145b6108805760405162461bcd60e51b815260206004820152600d60248201526c10d85b9b9bdd081c99599d5b99609a1b60448201526064016104c8565b6004818101805460ff1916600390811790915542600684015560028301549083015460405163a9059cbb60e01b81526001600160a01b039283169381019390935260248301527f0000000000000000000000000000000000000000000000000000000000000000169063a9059cbb906044016020604051808303816000875af1158015610911573d6000803e3d6000fd5b505050506040513d601f19601f820116820180604052508101906109359190611e83565b6109715760405162461bcd60e51b815260206004820152600d60248201526c1499599d5b990819985a5b1959609a1b60448201526064016104c8565b60028101546003820154604080516001600160a01b039093168352602083019190915283917f421ac64b0a0e649da74bb1528ebb1736572ec660f9aff6b354fd500e22c6341891015b60405180910390a2506109cd6001600055565b50565b6109d86118fc565b600081815260056020526040902060028101546001600160a01b03163314610a3b5760405162461bcd60e51b81526020600482015260166024820152754f6e6c792062757965722063616e2072656c6561736560501b60448201526064016104c8565b6001600482015460ff166005811115610a5657610a56611985565b14610a955760405162461bcd60e51b815260206004820152600f60248201526e1119585b081b9bdd08199d5b991959608a1b60448201526064016104c8565b60048101805460ff1916600290811790915542600683015554600382015460009161271091610ac49190611ea5565b610ace9190611ebc565b90506000818360030154610ae29190611ede565b60018401546001600160a01b03166000908152600760205260408120805492935090610b0d83611ceb565b909155505060028301546001600160a01b03166000908152600760205260408120805491610b3a83611ceb565b9091555050600383015460018401546001600160a01b031660009081526008602052604081208054909190610b70908490611ef1565b9091555050600383015460028401546001600160a01b031660009081526008602052604081208054909190610ba6908490611ef1565b9091555050600183015460405163a9059cbb60e01b81526001600160a01b039182166004820152602481018390527f00000000000000000000000000000000000000000000000000000000000000009091169063a9059cbb906044016020604051808303816000875af1158015610c21573d6000803e3d6000fd5b505050506040513d601f19601f82011682018060405250810190610c459190611e83565b610c8a5760405162461bcd60e51b815260206004820152601660248201527514d95b1b195c881d1c985b9cd9995c8819985a5b195960521b60448201526064016104c8565b8115610d6a5760015460405163a9059cbb60e01b81526001600160a01b039182166004820152602481018490527f00000000000000000000000000000000000000000000000000000000000000009091169063a9059cbb906044016020604051808303816000875af1158015610d04573d6000803e3d6000fd5b505050506040513d601f19601f82011682018060405250810190610d289190611e83565b610d6a5760405162461bcd60e51b8152602060048201526013602482015272119959481d1c985b9cd9995c8819985a5b1959606a1b60448201526064016104c8565b6001830154604080516001600160a01b03909216825260208201839052810183905284907fc4e41bfdda3362f3dc4ec3cfc564e55464a62dd6c87e3f68cefe2f5ceeefbac59060600160405180910390a25050506109cd6001600055565b6001546001600160a01b03163314610df25760405162461bcd60e51b81526004016104c890611e5f565b610dfa6118fc565b600081815260056020526040902060048082015460ff166005811115610e2257610e22611985565b14610e5e5760405162461bcd60e51b815260206004820152600c60248201526b139bdd08191a5cdc1d5d195960a21b60448201526064016104c8565b60048101805460ff1916600290811790915542600683015554600382015460009161271091610e8d9190611ea5565b610e979190611ebc565b90506000818360030154610eab9190611ede565b60018401546001600160a01b03166000908152600760205260408120805492935090610ed683611ceb565b909155505060028301546001600160a01b03166000908152600760205260408120805491610f0383611ceb565b9091555050600383015460018401546001600160a01b031660009081526008602052604081208054909190610f39908490611ef1565b9091555050600383015460028401546001600160a01b031660009081526008602052604081208054909190610f6f908490611ef1565b9091555050600183015460405163a9059cbb60e01b81526001600160a01b039182166004820152602481018390527f00000000000000000000000000000000000000000000000000000000000000009091169063a9059cbb906044016020604051808303816000875af1158015610fea573d6000803e3d6000fd5b505050506040513d601f19601f8201168201806040525081019061100e9190611e83565b610c8a5760405162461bcd60e51b815260206004820152600f60248201526e151c985b9cd9995c8819985a5b1959608a1b60448201526064016104c8565b600081815260056020526040902060018101546001600160a01b031633148061107f57506001546001600160a01b031633145b6110bc5760405162461bcd60e51b815260206004820152600e60248201526d139bdd08185d5d1a1bdc9a5e995960921b60448201526064016104c8565b6000600482015460ff1660058111156110d7576110d7611985565b146111145760405162461bcd60e51b815260206004820152600d60248201526c10d85b9b9bdd0818d85b98d95b609a1b60448201526064016104c8565b60048101805460ff1916600517905560405182907f31b0c01e8429f81903c3f8adc204767b8efa7cfca91a00f3b4bb40ce63c8a20690600090a25050565b6001546001600160a01b0316331461117c5760405162461bcd60e51b81526004016104c890611e5f565b6101f48111156111bd5760405162461bcd60e51b815260206004820152600c60248201526b08ccaca40e8dede40d0d2ced60a31b60448201526064016104c8565b600255565b6112026040805160e08101825260608082526000602083018190529282018390528101829052906080820190815260200160008152602001600081525090565b60008281526005602052604090819020815160e0810190925280548290829061122a90611c8b565b80601f016020809104026020016040519081016040528092919081815260200182805461125690611c8b565b80156112a35780601f10611278576101008083540402835291602001916112a3565b820191906000526020600020905b81548152906001019060200180831161128657829003601f168201915b505050918352505060018201546001600160a01b039081166020830152600283015416604082015260038201546060820152600482015460809091019060ff1660058111156112f4576112f4611985565b600581111561130557611305611985565b81526005820154602082015260069091015460409091015292915050565b600081815260056020526040902060028101546001600160a01b0316331480611358575060018101546001600160a01b031633145b6113925760405162461bcd60e51b815260206004820152600b60248201526a4e6f74206120706172747960a81b60448201526064016104c8565b6001600482015460ff1660058111156113ad576113ad611985565b146113ec5760405162461bcd60e51b815260206004820152600f60248201526e1119585b081b9bdd08199d5b991959608a1b60448201526064016104c8565b6004818101805460ff1916909117905560405133815282907fa68d56a81a9be734bdfa17f0fb210239cdc6cac8f3bcb9d5c09841fcab4b1d8a9060200160405180910390a25050565b61143d6118fc565b600081815260056020526040902060028101546001600160a01b03166114965760405162461bcd60e51b815260206004820152600e60248201526d1119585b081b9bdd08199bdd5b9960921b60448201526064016104c8565b60028101546001600160a01b031633146114eb5760405162461bcd60e51b815260206004820152601660248201527513db9b1e48189d5e595c8818d85b8819195c1bdcda5d60521b60448201526064016104c8565b6000600482015460ff16600581111561150657611506611985565b146115465760405162461bcd60e51b815260206004820152601060248201526f4465616c206e6f742070656e64696e6760801b60448201526064016104c8565b6004818101805460ff1916600117905560038201546040516323b872dd60e01b8152339281019290925230602483015260448201526001600160a01b037f000000000000000000000000000000000000000000000000000000000000000016906323b872dd906064016020604051808303816000875af11580156115ce573d6000803e3d6000fd5b505050506040513d601f19601f820116820180604052508101906115f29190611e83565b6116305760405162461bcd60e51b815260206004820152600f60248201526e151c985b9cd9995c8819985a5b1959608a1b60448201526064016104c8565b600381015460408051338152602081019290925283917fcaee61ccea433411b2a8848cb622487f4368e8c231d05982e0f89e3eb7a1f8c891016109ba565b6001546001600160a01b031633146116985760405162461bcd60e51b81526004016104c890611e5f565b600355565b6001546001600160a01b031633146116c75760405162461bcd60e51b81526004016104c890611e5f565b6001600160a01b03811661170f5760405162461bcd60e51b815260206004820152600f60248201526e496e76616c6964206164647265737360881b60448201526064016104c8565b600180546001600160a01b0319166001600160a01b0392909216919091179055565b6117716040805160e08101825260608082526000602083018190529282018390528101829052906080820190815260200160008152602001600081525090565b600060068484604051611785929190611cc5565b9081526020016040518091039020549050806000036117d75760405162461bcd60e51b815260206004820152600e60248201526d1119585b081b9bdd08199bdd5b9960921b60448201526064016104c8565b60008181526005602052604090819020815160e081019092528054829082906117ff90611c8b565b80601f016020809104026020016040519081016040528092919081815260200182805461182b90611c8b565b80156118785780601f1061184d57610100808354040283529160200191611878565b820191906000526020600020905b81548152906001019060200180831161185b57829003601f168201915b505050918352505060018201546001600160a01b039081166020830152600283015416604082015260038201546060820152600482015460809091019060ff1660058111156118c9576118c9611985565b60058111156118da576118da611985565b8152602001600582015481526020016006820154815250509150505b92915050565b60026000540361191f57604051633ee5aeb560e01b815260040160405180910390fd5b6002600055565b60006020828403121561193857600080fd5b5035919050565b6000815180845260005b8181101561196557602081850181015186830182015201611949565b506000602082860101526020601f19601f83011685010191505092915050565b634e487b7160e01b600052602160045260246000fd5b600681106119b957634e487b7160e01b600052602160045260246000fd5b9052565b60e0815260006119d060e083018a61193f565b6001600160a01b038981166020850152881660408401526060830187905290506119fd608083018661199b565b60a082019390935260c0015295945050505050565b60008083601f840112611a2457600080fd5b50813567ffffffffffffffff811115611a3c57600080fd5b602083019150836020828501011115611a5457600080fd5b9250929050565b80356001600160a01b0381168114611a7257600080fd5b919050565b600080600080600060808688031215611a8f57600080fd5b853567ffffffffffffffff811115611aa657600080fd5b611ab288828901611a12565b9096509450611ac5905060208701611a5b565b9250611ad360408701611a5b565b949793965091946060013592915050565b600060208284031215611af657600080fd5b611aff82611a5b565b9392505050565b602081526000825160e06020840152611b2361010084018261193f565b9050602084015160018060a01b0380821660408601528060408701511660608601525050606084015160808401526080840151611b6360a085018261199b565b5060a084015160c084015260c084015160e08401528091505092915050565b634e487b7160e01b600052604160045260246000fd5b600060208284031215611baa57600080fd5b813567ffffffffffffffff80821115611bc257600080fd5b818401915084601f830112611bd657600080fd5b813581811115611be857611be8611b82565b604051601f8201601f19908116603f01168101908382118183101715611c1057611c10611b82565b81604052828152876020848701011115611c2957600080fd5b826020860160208301376000928101602001929092525095945050505050565b60008060208385031215611c5c57600080fd5b823567ffffffffffffffff811115611c7357600080fd5b611c7f85828601611a12565b90969095509350505050565b600181811c90821680611c9f57607f821691505b602082108103611cbf57634e487b7160e01b600052602260045260246000fd5b50919050565b8183823760009101908152919050565b634e487b7160e01b600052601160045260246000fd5b600060018201611cfd57611cfd611cd5565b5060010190565b601f821115611d4e57600081815260208120601f850160051c81016020861015611d2b5750805b601f850160051c820191505b81811015611d4a57828155600101611d37565b5050505b505050565b815167ffffffffffffffff811115611d6d57611d6d611b82565b611d8181611d7b8454611c8b565b84611d04565b602080601f831160018114611db65760008415611d9e5750858301515b600019600386901b1c1916600185901b178555611d4a565b600085815260208120601f198616915b82811015611de557888601518255948401946001909101908401611dc6565b5085821015611e035787850151600019600388901b60f8161c191681555b5050505050600190811b01905550565b60808152846080820152848660a0830137600060a08683018101919091526001600160a01b0394851660208301529290931660408401526060830152601f909201601f19160101919050565b6020808252600a908201526927b7363c9037bbb732b960b11b604082015260600190565b600060208284031215611e9557600080fd5b81518015158114611aff57600080fd5b80820281158282048414176118f6576118f6611cd5565b600082611ed957634e487b7160e01b600052601260045260246000fd5b500490565b818103818111156118f6576118f6611cd5565b808201808211156118f6576118f6611cd556fea2646970667358221220c4b75b720cd0260f3b8cff1371d67a1d789eb0daccb2c0e9992a61c5b9255be764736f6c63430008140033",
  "linkReferences": {},
  "deployedLinkReferences": {}
}